{
    "_format": "hh-sol-artifact-1",
    "contractName": "WrappedTokenGatewayV3",
    "sourceName": "contracts/interfaces/aave_v3.2/contracts/helpers/WrappedTokenGatewayV3.sol",
    "abi": [
        {
            "inputs": [
                {
                    "internalType": "address",
                    "name": "weth",
                    "type": "address"
                },
                {
                    "internalType": "address",
                    "name": "owner",
                    "type": "address"
                },
                {
                    "internalType": "contract IPool",
                    "name": "pool",
                    "type": "address"
                }
            ],
            "stateMutability": "nonpayable",
            "type": "constructor"
        },
        {
            "anonymous": false,
            "inputs": [
                {
                    "indexed": true,
                    "internalType": "address",
                    "name": "previousOwner",
                    "type": "address"
                },
                {
                    "indexed": true,
                    "internalType": "address",
                    "name": "newOwner",
                    "type": "address"
                }
            ],
            "name": "OwnershipTransferred",
            "type": "event"
        },
        {
            "stateMutability": "payable",
            "type": "fallback"
        },
        {
            "inputs": [
                {
                    "internalType": "address",
                    "name": "",
                    "type": "address"
                },
                {
                    "internalType": "uint256",
                    "name": "amount",
                    "type": "uint256"
                },
                {
                    "internalType": "uint16",
                    "name": "referralCode",
                    "type": "uint16"
                }
            ],
            "name": "borrowETH",
            "outputs": [],
            "stateMutability": "nonpayable",
            "type": "function"
        },
        {
            "inputs": [
                {
                    "internalType": "address",
                    "name": "",
                    "type": "address"
                },
                {
                    "internalType": "address",
                    "name": "onBehalfOf",
                    "type": "address"
                },
                {
                    "internalType": "uint16",
                    "name": "referralCode",
                    "type": "uint16"
                }
            ],
            "name": "depositETH",
            "outputs": [],
            "stateMutability": "payable",
            "type": "function"
        },
        {
            "inputs": [
                {
                    "internalType": "address",
                    "name": "to",
                    "type": "address"
                },
                {
                    "internalType": "uint256",
                    "name": "amount",
                    "type": "uint256"
                }
            ],
            "name": "emergencyEtherTransfer",
            "outputs": [],
            "stateMutability": "nonpayable",
            "type": "function"
        },
        {
            "inputs": [
                {
                    "internalType": "address",
                    "name": "token",
                    "type": "address"
                },
                {
                    "internalType": "address",
                    "name": "to",
                    "type": "address"
                },
                {
                    "internalType": "uint256",
                    "name": "amount",
                    "type": "uint256"
                }
            ],
            "name": "emergencyTokenTransfer",
            "outputs": [],
            "stateMutability": "nonpayable",
            "type": "function"
        },
        {
            "inputs": [],
            "name": "getWETHAddress",
            "outputs": [
                {
                    "internalType": "address",
                    "name": "",
                    "type": "address"
                }
            ],
            "stateMutability": "view",
            "type": "function"
        },
        {
            "inputs": [],
            "name": "owner",
            "outputs": [
                {
                    "internalType": "address",
                    "name": "",
                    "type": "address"
                }
            ],
            "stateMutability": "view",
            "type": "function"
        },
        {
            "inputs": [],
            "name": "renounceOwnership",
            "outputs": [],
            "stateMutability": "nonpayable",
            "type": "function"
        },
        {
            "inputs": [
                {
                    "internalType": "address",
                    "name": "",
                    "type": "address"
                },
                {
                    "internalType": "uint256",
                    "name": "amount",
                    "type": "uint256"
                },
                {
                    "internalType": "address",
                    "name": "onBehalfOf",
                    "type": "address"
                }
            ],
            "name": "repayETH",
            "outputs": [],
            "stateMutability": "payable",
            "type": "function"
        },
        {
            "inputs": [
                {
                    "internalType": "address",
                    "name": "newOwner",
                    "type": "address"
                }
            ],
            "name": "transferOwnership",
            "outputs": [],
            "stateMutability": "nonpayable",
            "type": "function"
        },
        {
            "inputs": [
                {
                    "internalType": "address",
                    "name": "",
                    "type": "address"
                },
                {
                    "internalType": "uint256",
                    "name": "amount",
                    "type": "uint256"
                },
                {
                    "internalType": "address",
                    "name": "to",
                    "type": "address"
                }
            ],
            "name": "withdrawETH",
            "outputs": [],
            "stateMutability": "nonpayable",
            "type": "function"
        },
        {
            "inputs": [
                {
                    "internalType": "address",
                    "name": "",
                    "type": "address"
                },
                {
                    "internalType": "uint256",
                    "name": "amount",
                    "type": "uint256"
                },
                {
                    "internalType": "address",
                    "name": "to",
                    "type": "address"
                },
                {
                    "internalType": "uint256",
                    "name": "deadline",
                    "type": "uint256"
                },
                {
                    "internalType": "uint8",
                    "name": "permitV",
                    "type": "uint8"
                },
                {
                    "internalType": "bytes32",
                    "name": "permitR",
                    "type": "bytes32"
                },
                {
                    "internalType": "bytes32",
                    "name": "permitS",
                    "type": "bytes32"
                }
            ],
            "name": "withdrawETHWithPermit",
            "outputs": [],
            "stateMutability": "nonpayable",
            "type": "function"
        },
        {
            "stateMutability": "payable",
            "type": "receive"
        }
    ],
    "bytecode": "0x60c06040523480156200001157600080fd5b5060405162001a9838038062001a9883398101604081905262000034916200022d565b600080546001600160a01b0319163390811782556040519091829160008051602062001a78833981519152908290a3506001600160a01b03808416608052811660a052620000828262000103565b60405163095ea7b360e01b81526001600160a01b038281166004830152600019602483015284169063095ea7b3906044016020604051808303816000875af1158015620000d3573d6000803e3d6000fd5b505050506040513d601f19601f82011682018060405250810190620000f9919062000281565b50505050620002ac565b6000546001600160a01b03163314620001635760405162461bcd60e51b815260206004820181905260248201527f4f776e61626c653a2063616c6c6572206973206e6f7420746865206f776e657260448201526064015b60405180910390fd5b6001600160a01b038116620001ca5760405162461bcd60e51b815260206004820152602660248201527f4f776e61626c653a206e6577206f776e657220697320746865207a65726f206160448201526564647265737360d01b60648201526084016200015a565b600080546040516001600160a01b038085169392169160008051602062001a7883398151915291a3600080546001600160a01b0319166001600160a01b0392909216919091179055565b6001600160a01b03811681146200022a57600080fd5b50565b6000806000606084860312156200024357600080fd5b8351620002508162000214565b6020850151909350620002638162000214565b6040850151909250620002768162000214565b809150509250925092565b6000602082840312156200029457600080fd5b81518015158114620002a557600080fd5b9392505050565b60805160a0516117146200036460003960008181610385015281816104a001528181610653015281816107d2015281816109e401528181610ab901528181610cf00152610e4c01526000818160b001528181610206015281816102bf01528181610345015281816104750152818161061e015281816106d7015281816107a70152818161091f0152818161099d01528181610a8e01528181610cbb01528181610d7401528181610dfd0152610ebc01526117146000f3fe6080604052600436106100a05760003560e01c8063affa881711610064578063affa8817146101f7578063bcc3c2551461022a578063d4c40b6c1461023d578063e74f7b851461025d578063eed88b8d1461027d578063f2fde38b1461029d5761011a565b8063474cf53d14610159578063715018a61461016c57806380500d20146101815780638da5cb5b146101a1578063a3d5b255146101d75761011a565b3661011a57336001600160a01b037f000000000000000000000000000000000000000000000000000000000000000016146101185760405162461bcd60e51b8152602060048201526013602482015272149958d95a5d99481b9bdd08185b1b1bddd959606a1b60448201526064015b60405180910390fd5b005b60405162461bcd60e51b815260206004820152601460248201527311985b1b189858dac81b9bdd08185b1b1bddd95960621b604482015260640161010f565b61011861016736600461125c565b6102bd565b34801561017857600080fd5b506101186103ea565b34801561018d57600080fd5b5061011861019c3660046112a7565b61045e565b3480156101ad57600080fd5b506000546001600160a01b03165b6040516001600160a01b03909116815260200160405180910390f35b3480156101e357600080fd5b506101186101f23660046112de565b61074d565b34801561020357600080fd5b507f00000000000000000000000000000000000000000000000000000000000000006101bb565b6101186102383660046112a7565b610790565b34801561024957600080fd5b5061011861025836600461131f565b610a77565b34801561026957600080fd5b50610118610278366004611396565b610dee565b34801561028957600080fd5b506101186102983660046113cd565b610f2c565b3480156102a957600080fd5b506101186102b83660046113f9565b610f64565b7f00000000000000000000000000000000000000000000000000000000000000006001600160a01b031663d0e30db0346040518263ffffffff1660e01b81526004016000604051808303818588803b15801561031857600080fd5b505af115801561032c573d6000803e3d6000fd5b505060405163e8eda9df60e01b81526001600160a01b037f000000000000000000000000000000000000000000000000000000000000000081166004830152346024830152868116604483015261ffff861660648301527f000000000000000000000000000000000000000000000000000000000000000016935063e8eda9df92506084019050600060405180830381600087803b1580156103cd57600080fd5b505af11580156103e1573d6000803e3d6000fd5b50505050505050565b6000546001600160a01b031633146104145760405162461bcd60e51b815260040161010f9061141d565b600080546040516001600160a01b03909116907f8be0079c531659141344cd1fd0a4f28419497f9722a3daafe3b4186f6b6457e0908390a3600080546001600160a01b0319169055565b6040516335ea6a7560e01b81526001600160a01b037f0000000000000000000000000000000000000000000000000000000000000000811660048301526000917f0000000000000000000000000000000000000000000000000000000000000000909116906335ea6a75906024016101e060405180830381865afa1580156104ea573d6000803e3d6000fd5b505050506040513d601f19601f8201168201806040525081019061050e919061152a565b61010001516040516370a0823160e01b81523360048201529091506000906001600160a01b038316906370a0823190602401602060405180830381865afa15801561055d573d6000803e3d6000fd5b505050506040513d601f19601f82011682018060405250810190610581919061164d565b9050836001810161058f5750805b6040516323b872dd60e01b8152336004820152306024820152604481018290526001600160a01b038416906323b872dd906064016020604051808303816000875af11580156105e2573d6000803e3d6000fd5b505050506040513d601f19601f820116820180604052508101906106069190611666565b50604051631a4ca37b60e21b81526001600160a01b037f000000000000000000000000000000000000000000000000000000000000000081166004830152602482018390523060448301527f000000000000000000000000000000000000000000000000000000000000000016906369328dec906064016020604051808303816000875af115801561069c573d6000803e3d6000fd5b505050506040513d601f19601f820116820180604052508101906106c0919061164d565b50604051632e1a7d4d60e01b8152600481018290527f00000000000000000000000000000000000000000000000000000000000000006001600160a01b031690632e1a7d4d90602401600060405180830381600087803b15801561072357600080fd5b505af1158015610737573d6000803e3d6000fd5b50505050610745848261104e565b505050505050565b6000546001600160a01b031633146107775760405162461bcd60e51b815260040161010f9061141d565b61078b6001600160a01b0384168383611101565b505050565b6040516335ea6a7560e01b81526001600160a01b037f0000000000000000000000000000000000000000000000000000000000000000811660048301526000917f0000000000000000000000000000000000000000000000000000000000000000909116906335ea6a75906024016101e060405180830381865afa15801561081c573d6000803e3d6000fd5b505050506040513d601f19601f82011682018060405250810190610840919061152a565b61014001516040516370a0823160e01b81526001600160a01b038481166004830152909116906370a0823190602401602060405180830381865afa15801561088c573d6000803e3d6000fd5b505050506040513d601f19601f820116820180604052508101906108b0919061164d565b9050808310156108bd5750815b8034101561091d5760405162461bcd60e51b815260206004820152602760248201527f6d73672e76616c7565206973206c657373207468616e2072657061796d656e7460448201526608185b5bdd5b9d60ca1b606482015260840161010f565b7f00000000000000000000000000000000000000000000000000000000000000006001600160a01b031663d0e30db0826040518263ffffffff1660e01b81526004016000604051808303818588803b15801561097857600080fd5b505af115801561098c573d6000803e3d6000fd5b505060405163573ade8160e01b81527f00000000000000000000000000000000000000000000000000000000000000006001600160a01b039081166004830152602482018690526002604483015286811660648301527f000000000000000000000000000000000000000000000000000000000000000016935063573ade81925060840190506020604051808303816000875af1158015610a31573d6000803e3d6000fd5b505050506040513d601f19601f82011682018060405250810190610a55919061164d565b5080341115610a7157610a7133610a6c8334611688565b61104e565b50505050565b6040516335ea6a7560e01b81526001600160a01b037f0000000000000000000000000000000000000000000000000000000000000000811660048301526000917f0000000000000000000000000000000000000000000000000000000000000000909116906335ea6a75906024016101e060405180830381865afa158015610b03573d6000803e3d6000fd5b505050506040513d601f19601f82011682018060405250810190610b27919061152a565b61010001516040516370a0823160e01b81523360048201529091506000906001600160a01b038316906370a0823190602401602060405180830381865afa158015610b76573d6000803e3d6000fd5b505050506040513d601f19601f82011682018060405250810190610b9a919061164d565b90508760018101610ba85750805b60405163d505accf60e01b8152336004820152306024820152604481018a90526064810188905260ff8716608482015260a4810186905260c481018590526001600160a01b0384169063d505accf9060e401600060405180830381600087803b158015610c1457600080fd5b505af1158015610c28573d6000803e3d6000fd5b50506040516323b872dd60e01b8152336004820152306024820152604481018490526001600160a01b03861692506323b872dd91506064016020604051808303816000875af1158015610c7f573d6000803e3d6000fd5b505050506040513d601f19601f82011682018060405250810190610ca39190611666565b50604051631a4ca37b60e21b81526001600160a01b037f000000000000000000000000000000000000000000000000000000000000000081166004830152602482018390523060448301527f000000000000000000000000000000000000000000000000000000000000000016906369328dec906064016020604051808303816000875af1158015610d39573d6000803e3d6000fd5b505050506040513d601f19601f82011682018060405250810190610d5d919061164d565b50604051632e1a7d4d60e01b8152600481018290527f00000000000000000000000000000000000000000000000000000000000000006001600160a01b031690632e1a7d4d90602401600060405180830381600087803b158015610dc057600080fd5b505af1158015610dd4573d6000803e3d6000fd5b50505050610de2888261104e565b50505050505050505050565b60405163a415bcad60e01b81527f00000000000000000000000000000000000000000000000000000000000000006001600160a01b039081166004830152602482018490526002604483015261ffff831660648301523360848301527f0000000000000000000000000000000000000000000000000000000000000000169063a415bcad9060a401600060405180830381600087803b158015610e9057600080fd5b505af1158015610ea4573d6000803e3d6000fd5b5050604051632e1a7d4d60e01b8152600481018590527f00000000000000000000000000000000000000000000000000000000000000006001600160a01b03169250632e1a7d4d9150602401600060405180830381600087803b158015610f0a57600080fd5b505af1158015610f1e573d6000803e3d6000fd5b5050505061078b338361104e565b6000546001600160a01b03163314610f565760405162461bcd60e51b815260040161010f9061141d565b610f60828261104e565b5050565b6000546001600160a01b03163314610f8e5760405162461bcd60e51b815260040161010f9061141d565b6001600160a01b038116610ff35760405162461bcd60e51b815260206004820152602660248201527f4f776e61626c653a206e6577206f776e657220697320746865207a65726f206160448201526564647265737360d01b606482015260840161010f565b600080546040516001600160a01b03808516939216917f8be0079c531659141344cd1fd0a4f28419497f9722a3daafe3b4186f6b6457e091a3600080546001600160a01b0319166001600160a01b0392909216919091179055565b604080516000808252602082019092526001600160a01b03841690839060405161107891906116af565b60006040518083038185875af1925050503d80600081146110b5576040519150601f19603f3d011682016040523d82523d6000602084013e6110ba565b606091505b505090508061078b5760405162461bcd60e51b815260206004820152601360248201527211551217d514905394d1915497d19052531151606a1b604482015260640161010f565b60405163a9059cbb60e01b8082526001600160a01b0384166004830152602482018390529060008060448382895af161113e573d6000803e3d6000fd5b506111488461118c565b610a715760405162461bcd60e51b815260206004820152601560248201527423a83b191d103330b4b632b2103a3930b739b332b960591b604482015260640161010f565b60006111b1565b62461bcd60e51b600052602060045280602452508060445260646000fd5b3d80156111f05760208114611221576111eb7f475076323a206d616c666f726d6564207472616e7366657220726573756c7400601f611193565b61122e565b823b611218576112187311d41d8c8e881b9bdd08184818dbdb9d1c9858dd60621b6014611193565b6001915061122e565b3d6000803e600051151591505b50919050565b6001600160a01b038116811461124957600080fd5b50565b61ffff8116811461124957600080fd5b60008060006060848603121561127157600080fd5b833561127c81611234565b9250602084013561128c81611234565b9150604084013561129c8161124c565b809150509250925092565b6000806000606084860312156112bc57600080fd5b83356112c781611234565b925060208401359150604084013561129c81611234565b6000806000606084860312156112f357600080fd5b83356112fe81611234565b9250602084013561130e81611234565b929592945050506040919091013590565b600080600080600080600060e0888a03121561133a57600080fd5b873561134581611234565b965060208801359550604088013561135c81611234565b945060608801359350608088013560ff8116811461137957600080fd5b9699959850939692959460a0840135945060c09093013592915050565b6000806000606084860312156113ab57600080fd5b83356113b681611234565b925060208401359150604084013561129c8161124c565b600080604083850312156113e057600080fd5b82356113eb81611234565b946020939093013593505050565b60006020828403121561140b57600080fd5b813561141681611234565b9392505050565b6020808252818101527f4f776e61626c653a2063616c6c6572206973206e6f7420746865206f776e6572604082015260600190565b6040516101e0810167ffffffffffffffff8111828210171561148457634e487b7160e01b600052604160045260246000fd5b60405290565b60006020828403121561149c57600080fd5b6040516020810181811067ffffffffffffffff821117156114cd57634e487b7160e01b600052604160045260246000fd5b6040529151825250919050565b80516fffffffffffffffffffffffffffffffff811681146114fa57600080fd5b919050565b805164ffffffffff811681146114fa57600080fd5b80516114fa8161124c565b80516114fa81611234565b60006101e0828403121561153d57600080fd5b611545611452565b61154f848461148a565b815261155d602084016114da565b602082015261156e604084016114da565b604082015261157f606084016114da565b6060820152611590608084016114da565b60808201526115a160a084016114da565b60a08201526115b260c084016114ff565b60c08201526115c360e08401611514565b60e08201526101006115d681850161151f565b908201526101206115e884820161151f565b908201526101406115fa84820161151f565b9082015261016061160c84820161151f565b9082015261018061161e8482016114da565b908201526101a06116308482016114da565b908201526101c06116428482016114da565b908201529392505050565b60006020828403121561165f57600080fd5b5051919050565b60006020828403121561167857600080fd5b8151801515811461141657600080fd5b818103818111156116a957634e487b7160e01b600052601160045260246000fd5b92915050565b6000825160005b818110156116d057602081860181015185830152016116b6565b50600092019182525091905056fea26469706673582212205c113016ff10a2b723d3bac6f5e82e5083c662f411bc0a08dd598e42d9da957364736f6c634300081800338be0079c531659141344cd1fd0a4f28419497f9722a3daafe3b4186f6b6457e0",
    "linkReferences": {},
    "deployedLinkReferences": {}
}