{
    "_format": "hh-sol-artifact-1",
    "contractName": "WalletBalanceProvider",
    "sourceName": "contracts/interfaces/aave_v3.2/contracts/helpers/WalletBalanceProvider.sol",
    "abi": [
        {
            "inputs": [
                {
                    "internalType": "address",
                    "name": "user",
                    "type": "address"
                },
                {
                    "internalType": "address",
                    "name": "token",
                    "type": "address"
                }
            ],
            "name": "balanceOf",
            "outputs": [
                {
                    "internalType": "uint256",
                    "name": "",
                    "type": "uint256"
                }
            ],
            "stateMutability": "view",
            "type": "function"
        },
        {
            "inputs": [
                {
                    "internalType": "address[]",
                    "name": "users",
                    "type": "address[]"
                },
                {
                    "internalType": "address[]",
                    "name": "tokens",
                    "type": "address[]"
                }
            ],
            "name": "batchBalanceOf",
            "outputs": [
                {
                    "internalType": "uint256[]",
                    "name": "",
                    "type": "uint256[]"
                }
            ],
            "stateMutability": "view",
            "type": "function"
        },
        {
            "inputs": [
                {
                    "internalType": "address",
                    "name": "provider",
                    "type": "address"
                },
                {
                    "internalType": "address",
                    "name": "user",
                    "type": "address"
                }
            ],
            "name": "getUserWalletBalances",
            "outputs": [
                {
                    "internalType": "address[]",
                    "name": "",
                    "type": "address[]"
                },
                {
                    "internalType": "uint256[]",
                    "name": "",
                    "type": "uint256[]"
                }
            ],
            "stateMutability": "view",
            "type": "function"
        },
        {
            "stateMutability": "payable",
            "type": "receive"
        }
    ],
    "bytecode": "0x608060405234801561001057600080fd5b50610a65806100206000396000f3fe6080604052600436106100385760003560e01c8063024053431461007c578063b59b28ef146100b3578063f7888aec146100e057600080fd5b3661007757333b6100755760405162461bcd60e51b8152602060048201526002602482015261191960f11b60448201526064015b60405180910390fd5b005b600080fd5b34801561008857600080fd5b5061009c6100973660046106aa565b61010e565b6040516100aa92919061071f565b60405180910390f35b3480156100bf57600080fd5b506100d36100ce3660046107c5565b610496565b6040516100aa9190610831565b3480156100ec57600080fd5b506101006100fb3660046106aa565b61059b565b6040519081526020016100aa565b6060806000846001600160a01b031663026b1d5f6040518163ffffffff1660e01b8152600401602060405180830381865afa158015610151573d6000803e3d6000fd5b505050506040513d601f19601f82011682018060405250810190610175919061084b565b90506000816001600160a01b031663d1946dbc6040518163ffffffff1660e01b8152600401600060405180830381865afa1580156101b7573d6000803e3d6000fd5b505050506040513d6000823e601f3d908101601f191682016040526101df91908101906108af565b90506000815160016101f19190610977565b67ffffffffffffffff81111561020957610209610868565b604051908082528060200260200182016040528015610232578160200160208202803683370190505b50905060005b825181101561028d578281815181106102535761025361098a565b602002602001015182828151811061026d5761026d61098a565b6001600160a01b0390921660209283029190910190910152600101610238565b5073eeeeeeeeeeeeeeeeeeeeeeeeeeeeeeeeeeeeeeee818351815181106102b6576102b661098a565b60200260200101906001600160a01b031690816001600160a01b0316815250506000815167ffffffffffffffff8111156102f2576102f2610868565b60405190808252806020026020018201604052801561031b578160200160208202803683370190505b50905060005b835181101561044a576000856001600160a01b031663c44b11f785848151811061034d5761034d61098a565b60200260200101516040518263ffffffff1660e01b815260040161038091906001600160a01b0391909116815260200190565b602060405180830381865afa15801561039d573d6000803e3d6000fd5b505050506040513d601f19601f820116820180604052508101906103c191906109a0565b8051909150670100000000000000161515806103fe5760008484815181106103eb576103eb61098a565b6020026020010181815250505050610442565b6104218a8685815181106104145761041461098a565b602002602001015161059b565b8484815181106104335761043361098a565b60200260200101818152505050505b600101610321565b506104698773eeeeeeeeeeeeeeeeeeeeeeeeeeeeeeeeeeeeeeee61059b565b8184518151811061047c5761047c61098a565b6020908102919091010152909450925050505b9250929050565b606060006104a483866109e2565b67ffffffffffffffff8111156104bc576104bc610868565b6040519080825280602002602001820160405280156104e5578160200160208202803683370190505b50905060005b858110156105915760005b848110156105885761054f8888848181106105135761051361098a565b905060200201602081019061052891906109f9565b87878481811061053a5761053a61098a565b90506020020160208101906100fb91906109f9565b838261055b88866109e2565b6105659190610977565b815181106105755761057561098a565b60209081029190910101526001016104f6565b506001016104eb565b5095945050505050565b600073eeeeeeeeeeeeeeeeeeeeeeeeeeeeeeeeeeeeeeed196001600160a01b038316016105d357506001600160a01b0382163161068c565b6001600160a01b0382163b15610654576040516370a0823160e01b81526001600160a01b0384811660048301528316906370a0823190602401602060405180830381865afa158015610629573d6000803e3d6000fd5b505050506040513d601f19601f8201168201806040525081019061064d9190610a16565b905061068c565b60405162461bcd60e51b815260206004820152600d60248201526c24a72b20a624a22faa27a5a2a760991b604482015260640161006c565b92915050565b6001600160a01b03811681146106a757600080fd5b50565b600080604083850312156106bd57600080fd5b82356106c881610692565b915060208301356106d881610692565b809150509250929050565b60008151808452602080850194506020840160005b83811015610714578151875295820195908201906001016106f8565b509495945050505050565b604080825283519082018190526000906020906060840190828701845b828110156107615781516001600160a01b03168452928401929084019060010161073c565b505050838103602085015261077681866106e3565b9695505050505050565b60008083601f84011261079257600080fd5b50813567ffffffffffffffff8111156107aa57600080fd5b6020830191508360208260051b850101111561048f57600080fd5b600080600080604085870312156107db57600080fd5b843567ffffffffffffffff808211156107f357600080fd5b6107ff88838901610780565b9096509450602087013591508082111561081857600080fd5b5061082587828801610780565b95989497509550505050565b60208152600061084460208301846106e3565b9392505050565b60006020828403121561085d57600080fd5b815161084481610692565b634e487b7160e01b600052604160045260246000fd5b604051601f8201601f1916810167ffffffffffffffff811182821017156108a7576108a7610868565b604052919050565b600060208083850312156108c257600080fd5b825167ffffffffffffffff808211156108da57600080fd5b818501915085601f8301126108ee57600080fd5b81518181111561090057610900610868565b8060051b915061091184830161087e565b818152918301840191848101908884111561092b57600080fd5b938501935b83851015610955578451925061094583610692565b8282529385019390850190610930565b98975050505050505050565b634e487b7160e01b600052601160045260246000fd5b8082018082111561068c5761068c610961565b634e487b7160e01b600052603260045260246000fd5b6000602082840312156109b257600080fd5b6040516020810181811067ffffffffffffffff821117156109d5576109d5610868565b6040529151825250919050565b808202811582820484141761068c5761068c610961565b600060208284031215610a0b57600080fd5b813561084481610692565b600060208284031215610a2857600080fd5b505191905056fea26469706673582212209da060a8c753538917f4b9a1a7fd5bc60ccbbe63192174f4fd13dbd8f36b4fd764736f6c63430008180033",
    "linkReferences": {},
    "deployedLinkReferences": {}
}